{
  "_format": "hh-sol-artifact-1",
  "contractName": "NFTMarket",
  "sourceName": "contracts/Market.sol",
  "abi": [
    {
      "inputs": [],
      "stateMutability": "nonpayable",
      "type": "constructor"
    },
    {
      "anonymous": false,
      "inputs": [
        {
          "indexed": true,
          "internalType": "uint256",
          "name": "itemId",
          "type": "uint256"
        },
        {
          "indexed": true,
          "internalType": "address",
          "name": "nftContract",
          "type": "address"
        },
        {
          "indexed": true,
          "internalType": "uint256",
          "name": "tokenId",
          "type": "uint256"
        },
        {
          "indexed": false,
          "internalType": "address",
          "name": "seller",
          "type": "address"
        },
        {
          "indexed": false,
          "internalType": "address",
          "name": "owner",
          "type": "address"
        },
        {
          "indexed": false,
          "internalType": "uint256",
          "name": "price",
          "type": "uint256"
        },
        {
          "indexed": false,
          "internalType": "bool",
          "name": "sold",
          "type": "bool"
        }
      ],
      "name": "MarketItemCreated",
      "type": "event"
    },
    {
      "anonymous": false,
      "inputs": [
        {
          "indexed": true,
          "internalType": "address",
          "name": "previousOwner",
          "type": "address"
        },
        {
          "indexed": true,
          "internalType": "address",
          "name": "newOwner",
          "type": "address"
        }
      ],
      "name": "OwnershipTransferred",
      "type": "event"
    },
    {
      "inputs": [
        {
          "internalType": "address",
          "name": "nftContract",
          "type": "address"
        },
        {
          "internalType": "uint256",
          "name": "tokenId",
          "type": "uint256"
        },
        {
          "internalType": "uint256",
          "name": "price",
          "type": "uint256"
        }
      ],
      "name": "createMarketItem",
      "outputs": [],
      "stateMutability": "payable",
      "type": "function"
    },
    {
      "inputs": [
        {
          "internalType": "address",
          "name": "nftContract",
          "type": "address"
        },
        {
          "internalType": "uint256",
          "name": "itemId",
          "type": "uint256"
        }
      ],
      "name": "createMarketSale",
      "outputs": [],
      "stateMutability": "payable",
      "type": "function"
    },
    {
      "inputs": [],
      "name": "fetchItemsCreated",
      "outputs": [
        {
          "components": [
            {
              "internalType": "uint256",
              "name": "itemId",
              "type": "uint256"
            },
            {
              "internalType": "address",
              "name": "nftContract",
              "type": "address"
            },
            {
              "internalType": "uint256",
              "name": "tokenId",
              "type": "uint256"
            },
            {
              "internalType": "address payable",
              "name": "seller",
              "type": "address"
            },
            {
              "internalType": "address payable",
              "name": "owner",
              "type": "address"
            },
            {
              "internalType": "uint256",
              "name": "price",
              "type": "uint256"
            },
            {
              "internalType": "bool",
              "name": "sold",
              "type": "bool"
            }
          ],
          "internalType": "struct NFTMarket.MarketItem[]",
          "name": "",
          "type": "tuple[]"
        }
      ],
      "stateMutability": "view",
      "type": "function"
    },
    {
      "inputs": [],
      "name": "fetchMarketItems",
      "outputs": [
        {
          "components": [
            {
              "internalType": "uint256",
              "name": "itemId",
              "type": "uint256"
            },
            {
              "internalType": "address",
              "name": "nftContract",
              "type": "address"
            },
            {
              "internalType": "uint256",
              "name": "tokenId",
              "type": "uint256"
            },
            {
              "internalType": "address payable",
              "name": "seller",
              "type": "address"
            },
            {
              "internalType": "address payable",
              "name": "owner",
              "type": "address"
            },
            {
              "internalType": "uint256",
              "name": "price",
              "type": "uint256"
            },
            {
              "internalType": "bool",
              "name": "sold",
              "type": "bool"
            }
          ],
          "internalType": "struct NFTMarket.MarketItem[]",
          "name": "",
          "type": "tuple[]"
        }
      ],
      "stateMutability": "view",
      "type": "function"
    },
    {
      "inputs": [],
      "name": "fetchMyNFTs",
      "outputs": [
        {
          "components": [
            {
              "internalType": "uint256",
              "name": "itemId",
              "type": "uint256"
            },
            {
              "internalType": "address",
              "name": "nftContract",
              "type": "address"
            },
            {
              "internalType": "uint256",
              "name": "tokenId",
              "type": "uint256"
            },
            {
              "internalType": "address payable",
              "name": "seller",
              "type": "address"
            },
            {
              "internalType": "address payable",
              "name": "owner",
              "type": "address"
            },
            {
              "internalType": "uint256",
              "name": "price",
              "type": "uint256"
            },
            {
              "internalType": "bool",
              "name": "sold",
              "type": "bool"
            }
          ],
          "internalType": "struct NFTMarket.MarketItem[]",
          "name": "",
          "type": "tuple[]"
        }
      ],
      "stateMutability": "view",
      "type": "function"
    },
    {
      "inputs": [],
      "name": "getListingPrice",
      "outputs": [
        {
          "internalType": "uint256",
          "name": "",
          "type": "uint256"
        }
      ],
      "stateMutability": "view",
      "type": "function"
    },
    {
      "inputs": [],
      "name": "owner",
      "outputs": [
        {
          "internalType": "address",
          "name": "",
          "type": "address"
        }
      ],
      "stateMutability": "view",
      "type": "function"
    },
    {
      "inputs": [],
      "name": "renounceOwnership",
      "outputs": [],
      "stateMutability": "nonpayable",
      "type": "function"
    },
    {
      "inputs": [
        {
          "internalType": "address",
          "name": "_erc20Contract",
          "type": "address"
        }
      ],
      "name": "setERC20Contract",
      "outputs": [],
      "stateMutability": "nonpayable",
      "type": "function"
    },
    {
      "inputs": [
        {
          "internalType": "uint256",
          "name": "_listingPrice",
          "type": "uint256"
        }
      ],
      "name": "setListingPrice",
      "outputs": [],
      "stateMutability": "nonpayable",
      "type": "function"
    },
    {
      "inputs": [
        {
          "internalType": "address",
          "name": "newOwner",
          "type": "address"
        }
      ],
      "name": "transferOwnership",
      "outputs": [],
      "stateMutability": "nonpayable",
      "type": "function"
    }
  ],
  "bytecode": "0x60806040526000600455600580546001600160a01b03191673b91c05cf30a973a58295c8db9248d0911cf091e517905534801561003b57600080fd5b50600160005561004a3361004f565b6100a1565b600180546001600160a01b038381166001600160a01b0319831681179093556040519116919082907f8be0079c531659141344cd1fd0a4f28419497f9722a3daafe3b4186f6b6457e090600090a35050565b61115e806100b06000396000f3fe60806040526004361061009c5760003560e01c80637c726b69116100645780637c726b69146101295780638da5cb5b14610149578063c23b139e14610171578063cac8d53814610184578063f064c32e146101a4578063f2fde38b146101b957600080fd5b80630f08efe0146100a157806312e85585146100cc578063202e3740146100ea57806358eb2df5146100ff578063715018a614610114575b600080fd5b3480156100ad57600080fd5b506100b66101d9565b6040516100c39190610fff565b60405180910390f35b3480156100d857600080fd5b506004546040519081526020016100c3565b3480156100f657600080fd5b506100b6610381565b61011261010d366004610f7d565b610567565b005b34801561012057600080fd5b50610112610805565b34801561013557600080fd5b50610112610144366004610fcf565b61083b565b34801561015557600080fd5b506001546040516001600160a01b0390911681526020016100c3565b61011261017f366004610f54565b61086a565b34801561019057600080fd5b5061011261019f366004610f33565b610bbc565b3480156101b057600080fd5b506100b6610c08565b3480156101c557600080fd5b506101126101d4366004610f33565b610dee565b606060006101e660025490565b905060006101f360035490565b60025461020091906110e0565b90506000808267ffffffffffffffff81111561022c57634e487b7160e01b600052604160045260246000fd5b60405190808252806020026020018201604052801561026557816020015b610252610edb565b81526020019060019003908161024a5790505b50905060005b848110156103785760006006816102838460016110c8565b81526020810191909152604001600020600401546001600160a01b031614156103665760006102b38260016110c8565b600081815260066020818152604092839020835160e0810185528154815260018201546001600160a01b039081169382019390935260028201549481019490945260038101548216606085015260048101549091166080840152600581015460a08401529081015460ff16151560c083015285519293509185908790811061034b57634e487b7160e01b600052603260045260246000fd5b60209081029190910101526103616001866110c8565b945050505b80610370816110f7565b91505061026b565b50949350505050565b6060600061038e60025490565b905060008060005b838110156103f15733600660006103ae8460016110c8565b81526020810191909152604001600020600401546001600160a01b031614156103df576103dc6001846110c8565b92505b806103e9816110f7565b915050610396565b5060008267ffffffffffffffff81111561041b57634e487b7160e01b600052604160045260246000fd5b60405190808252806020026020018201604052801561045457816020015b610441610edb565b8152602001906001900390816104395790505b50905060005b848110156103785733600660006104728460016110c8565b81526020810191909152604001600020600401546001600160a01b031614156105555760006104a28260016110c8565b600081815260066020818152604092839020835160e0810185528154815260018201546001600160a01b039081169382019390935260028201549481019490945260038101548216606085015260048101549091166080840152600581015460a08401529081015460ff16151560c083015285519293509185908790811061053a57634e487b7160e01b600052603260045260246000fd5b60209081029190910101526105506001866110c8565b945050505b8061055f816110f7565b91505061045a565b600260005414156105bf5760405162461bcd60e51b815260206004820152601f60248201527f5265656e7472616e637947756172643a207265656e7472616e742063616c6c0060448201526064015b60405180910390fd5b6002600055806106115760405162461bcd60e51b815260206004820152601c60248201527f5072696365206d757374206265206174206c656173742031207765690000000060448201526064016105b6565b600454341461066e5760405162461bcd60e51b8152602060048201526024808201527f5072696365206d75737420626520657175616c20746f206c697374696e6720706044820152637269636560e01b60648201526084016105b6565b61067c600280546001019055565b600061068760025490565b6040805160e0810182528281526001600160a01b0387811660208084018281528486018a8152336060870181815260006080890181815260a08a018e815260c08b018381528d8452600698899052928c90209a518b55955160018b0180546001600160a01b0319908116928c16929092179055945160028b0155915160038a0180548616918a1691909117905590516004808a0180549095169190981617909255915160058701555194909101805460ff19169415159490941790935592516323b872dd60e01b81529081019190915230602482015260448101869052919250906323b872dd90606401600060405180830381600087803b15801561078b57600080fd5b505af115801561079f573d6000803e3d6000fd5b505060408051338152600060208201819052818301879052606082015290518693506001600160a01b038816925084917f045dfa01dcba2b36aba1d3dc4a874f4b0c5d2fbeb8d2c4b34a7d88c8d8f929d1919081900360800190a4505060016000555050565b6001546001600160a01b0316331461082f5760405162461bcd60e51b81526004016105b690611093565b6108396000610e89565b565b6001546001600160a01b031633146108655760405162461bcd60e51b81526004016105b690611093565b600455565b600260005414156108bd5760405162461bcd60e51b815260206004820152601f60248201527f5265656e7472616e637947756172643a207265656e7472616e742063616c6c0060448201526064016105b6565b600260008181558281526006602052604090819020600580820154919093015492549151636eb1769f60e11b815233600482015230602482015290929183916001600160a01b039091169063dd62ed3e9060440160206040518083038186803b15801561092957600080fd5b505afa15801561093d573d6000803e3d6000fd5b505050506040513d601f19601f820116820180604052508101906109619190610fe7565b10156109d55760405162461bcd60e51b815260206004820152603a60248201527f416c6c6f77616e63652070726f626c656d3a206e6f7420656e6f75676820667560448201527f6e6420616c6c6f77656420746f206275792074686973206e667400000000000060648201526084016105b6565b600554600084815260066020526040908190206003015490516323b872dd60e01b81523360048201526001600160a01b039182166024820152604481018590529116906323b872dd90606401602060405180830381600087803b158015610a3b57600080fd5b505af1158015610a4f573d6000803e3d6000fd5b505050506040513d601f19601f82011682018060405250810190610a739190610faf565b610acf5760405162461bcd60e51b815260206004820152602760248201527f50726f626c656d207768696c65207472616e7366657272696e6720455243323060448201526620746f6b656e7360c81b60648201526084016105b6565b6040516323b872dd60e01b8152306004820152336024820152604481018290526001600160a01b038516906323b872dd90606401600060405180830381600087803b158015610b1d57600080fd5b505af1158015610b31573d6000803e3d6000fd5b50505060008481526006602081905260409091206004810180546001600160a01b0319163317905501805460ff1916600117905550610b74600380546001019055565b6001546004546040516001600160a01b039092169181156108fc0291906000818181858888f19350505050158015610bb0573d6000803e3d6000fd5b50506001600055505050565b6001546001600160a01b03163314610be65760405162461bcd60e51b81526004016105b690611093565b600580546001600160a01b0319166001600160a01b0392909216919091179055565b60606000610c1560025490565b905060008060005b83811015610c78573360066000610c358460016110c8565b81526020810191909152604001600020600301546001600160a01b03161415610c6657610c636001846110c8565b92505b80610c70816110f7565b915050610c1d565b5060008267ffffffffffffffff811115610ca257634e487b7160e01b600052604160045260246000fd5b604051908082528060200260200182016040528015610cdb57816020015b610cc8610edb565b815260200190600190039081610cc05790505b50905060005b84811015610378573360066000610cf98460016110c8565b81526020810191909152604001600020600301546001600160a01b03161415610ddc576000610d298260016110c8565b600081815260066020818152604092839020835160e0810185528154815260018201546001600160a01b039081169382019390935260028201549481019490945260038101548216606085015260048101549091166080840152600581015460a08401529081015460ff16151560c0830152855192935091859087908110610dc157634e487b7160e01b600052603260045260246000fd5b6020908102919091010152610dd76001866110c8565b945050505b80610de6816110f7565b915050610ce1565b6001546001600160a01b03163314610e185760405162461bcd60e51b81526004016105b690611093565b6001600160a01b038116610e7d5760405162461bcd60e51b815260206004820152602660248201527f4f776e61626c653a206e6577206f776e657220697320746865207a65726f206160448201526564647265737360d01b60648201526084016105b6565b610e8681610e89565b50565b600180546001600160a01b038381166001600160a01b0319831681179093556040519116919082907f8be0079c531659141344cd1fd0a4f28419497f9722a3daafe3b4186f6b6457e090600090a35050565b6040805160e081018252600080825260208201819052918101829052606081018290526080810182905260a0810182905260c081019190915290565b80356001600160a01b0381168114610f2e57600080fd5b919050565b600060208284031215610f44578081fd5b610f4d82610f17565b9392505050565b60008060408385031215610f66578081fd5b610f6f83610f17565b946020939093013593505050565b600080600060608486031215610f91578081fd5b610f9a84610f17565b95602085013595506040909401359392505050565b600060208284031215610fc0578081fd5b81518015158114610f4d578182fd5b600060208284031215610fe0578081fd5b5035919050565b600060208284031215610ff8578081fd5b5051919050565b602080825282518282018190526000919060409081850190868401855b8281101561108657815180518552868101516001600160a01b039081168887015286820151878701526060808301518216908701526080808301519091169086015260a0808201519086015260c09081015115159085015260e0909301929085019060010161101c565b5091979650505050505050565b6020808252818101527f4f776e61626c653a2063616c6c6572206973206e6f7420746865206f776e6572604082015260600190565b600082198211156110db576110db611112565b500190565b6000828210156110f2576110f2611112565b500390565b600060001982141561110b5761110b611112565b5060010190565b634e487b7160e01b600052601160045260246000fdfea2646970667358221220dfd7672e031b00a4b1da15d280c3ffb896e26ddc5075f2fb1b04ed21fcef5c8e64736f6c63430008040033",
  "linkReferences": {},
  "deployedLinkReferences": {}
}